{"abi":[{"type":"constructor","inputs":[{"name":"_roundDuration","type":"uint256","internalType":"uint256"},{"name":"_underlying","type":"address","internalType":"address"},{"name":"_aavePool","type":"address","internalType":"address"}],"stateMutability":"nonpayable"},{"type":"function","name":"claim","inputs":[{"name":"roundId","type":"uint256","internalType":"uint256"}],"outputs":[],"stateMutability":"nonpayable"},{"type":"function","name":"currentId","inputs":[],"outputs":[{"name":"","type":"uint256","internalType":"uint256"}],"stateMutability":"view"},{"type":"function","name":"enter","inputs":[{"name":"amount","type":"uint256","internalType":"uint256"}],"outputs":[],"stateMutability":"nonpayable"},{"type":"function","name":"exit","inputs":[{"name":"roundId","type":"uint256","internalType":"uint256"}],"outputs":[],"stateMutability":"nonpayable"},{"type":"function","name":"getRound","inputs":[{"name":"roundId","type":"uint256","internalType":"uint256"}],"outputs":[{"name":"","type":"tuple","internalType":"struct AaveLottery.Round","components":[{"name":"endTime","type":"uint256","internalType":"uint256"},{"name":"totalStake","type":"uint256","internalType":"uint256"},{"name":"award","type":"uint256","internalType":"uint256"},{"name":"winnerTicket","type":"uint256","internalType":"uint256"},{"name":"winner","type":"address","internalType":"address"},{"name":"scaledBalanceStake","type":"uint256","internalType":"uint256"}]}],"stateMutability":"view"},{"type":"function","name":"getTicket","inputs":[{"name":"roundId","type":"uint256","internalType":"uint256"},{"name":"user","type":"address","internalType":"address"}],"outputs":[{"name":"","type":"tuple","internalType":"struct AaveLottery.Ticket","components":[{"name":"stake","type":"uint256","internalType":"uint256"},{"name":"segmentStart","type":"uint256","internalType":"uint256"},{"name":"exited","type":"bool","internalType":"bool"}]}],"stateMutability":"view"},{"type":"function","name":"roundDuration","inputs":[],"outputs":[{"name":"","type":"uint256","internalType":"uint256"}],"stateMutability":"view"},{"type":"function","name":"rounds","inputs":[{"name":"","type":"uint256","internalType":"uint256"}],"outputs":[{"name":"endTime","type":"uint256","internalType":"uint256"},{"name":"totalStake","type":"uint256","internalType":"uint256"},{"name":"award","type":"uint256","internalType":"uint256"},{"name":"winnerTicket","type":"uint256","internalType":"uint256"},{"name":"winner","type":"address","internalType":"address"},{"name":"scaledBalanceStake","type":"uint256","internalType":"uint256"}],"stateMutability":"view"},{"type":"function","name":"tickets","inputs":[{"name":"","type":"uint256","internalType":"uint256"},{"name":"","type":"address","internalType":"address"}],"outputs":[{"name":"stake","type":"uint256","internalType":"uint256"},{"name":"segmentStart","type":"uint256","internalType":"uint256"},{"name":"exited","type":"bool","internalType":"bool"}],"stateMutability":"view"},{"type":"function","name":"underlying","inputs":[],"outputs":[{"name":"","type":"address","internalType":"contract IERC20"}],"stateMutability":"view"},{"type":"error","name":"AddressEmptyCode","inputs":[{"name":"target","type":"address","internalType":"address"}]},{"type":"error","name":"AddressInsufficientBalance","inputs":[{"name":"account","type":"address","internalType":"address"}]},{"type":"error","name":"FailedInnerCall","inputs":[]},{"type":"error","name":"SafeERC20FailedOperation","inputs":[{"name":"token","type":"address","internalType":"address"}]}],"bytecode":{"object":"0x608060405234801561001057600080fd5b506040516113d63803806113d683398101604081905261002f91610270565b6000838155600280546001600160a01b03199081166001600160a01b03868116918217909355600380549092169285169283179091556040516335ea6a7560e01b815260048101919091526335ea6a75906024016101e060405180830381865afa1580156100a1573d6000803e3d6000fd5b505050506040513d601f19601f820116820180604052508101906100c59190610370565b6101008101519091506001600160a01b031661011a5760405162461bcd60e51b815260206004820152601060248201526f105513d2d15397d393d517d1561254d560821b604482015260640160405180910390fd5b610100810151600480546001600160a01b0319166001600160a01b0392831617815560025460405163095ea7b360e01b81528584169281019290925260001960248301529091169063095ea7b3906044016020604051808303816000875af115801561018a573d6000803e3d6000fd5b505050506040513d601f19601f820116820180604052508101906101ae919061049c565b506040518060c0016040528085426101c691906104c5565b81526000602080830182905260408084018390526060808501849052608080860185905260a095860185905260018054865260058086529584902088518155948801519085015591860151600284015585015160038301558401516004820180546001600160a01b0319166001600160a01b039092169190911790559290910151910155506104ec92505050565b80516001600160a01b038116811461026b57600080fd5b919050565b60008060006060848603121561028557600080fd5b8351925061029560208501610254565b91506102a360408501610254565b90509250925092565b6040516101e081016001600160401b03811182821017156102dd57634e487b7160e01b600052604160045260246000fd5b60405290565b6000602082840312156102f557600080fd5b604051602081016001600160401b038111828210171561032557634e487b7160e01b600052604160045260246000fd5b6040529151825250919050565b80516001600160801b038116811461026b57600080fd5b805164ffffffffff8116811461026b57600080fd5b805161ffff8116811461026b57600080fd5b60006101e082840312801561038457600080fd5b5061038d6102ac565b61039784846102e3565b81526103a560208401610332565b60208201526103b660408401610332565b60408201526103c760608401610332565b60608201526103d860808401610332565b60808201526103e960a08401610332565b60a08201526103fa60c08401610349565b60c082015261040b60e0840161035e565b60e082015261041d6101008401610254565b6101008201526104306101208401610254565b6101208201526104436101408401610254565b6101408201526104566101608401610254565b6101608201526104696101808401610332565b61018082015261047c6101a08401610332565b6101a082015261048f6101c08401610332565b6101c08201529392505050565b6000602082840312156104ae57600080fd5b815180151581146104be57600080fd5b9392505050565b808201808211156104e657634e487b7160e01b600052601160045260246000fd5b92915050565b610edb806104fb6000396000f3fe608060405234801561001057600080fd5b506004361061009e5760003560e01c80638f1327c0116100665780638f1327c0146101b7578063a59f3e0c1461021a578063b99d6e291461022d578063e00dd16114610287578063f7cb789a1461029e57600080fd5b806319a03cc2146100a3578063379607f5146100df5780636f307dc3146100f45780637f8661a11461011f5780638c65c81f14610132575b600080fd5b6100b66100b1366004610d88565b6102a7565b604080518251815260208084015190820152918101511515908201526060015b60405180910390f35b6100f26100ed366004610dc4565b610320565b005b600254610107906001600160a01b031681565b6040516001600160a01b0390911681526020016100d6565b6100f261012d366004610dc4565b6104c1565b610181610140366004610dc4565b60056020819052600091825260409091208054600182015460028301546003840154600485015494909501549294919390926001600160a01b039091169086565b6040805196875260208701959095529385019290925260608401526001600160a01b0316608083015260a082015260c0016100d6565b6101ca6101c5366004610dc4565b6105d7565b6040516100d69190815181526020808301519082015260408083015190820152606080830151908201526080808301516001600160a01b03169082015260a0918201519181019190915260c00190565b6100f2610228366004610dc4565b610678565b61026a61023b366004610d88565b600660209081526000928352604080842090915290825290208054600182015460029092015490919060ff1683565b6040805193845260208401929092521515908201526060016100d6565b61029060015481565b6040519081526020016100d6565b61029060005481565b6102cd604051806060016040528060008152602001600081526020016000151581525090565b5060008281526006602090815260408083206001600160a01b03851684528252918290208251606081018452815481526001820154928101929092526002015460ff161515918101919091525b92915050565b60015481106103685760405162461bcd60e51b815260206004820152600f60248201526e43555252454e545f4c4f545445525960881b60448201526064015b60405180910390fd5b600081815260066020908152604080832033845282528083208151606080820184528254825260018084015483870190815260029485015460ff16151584870152888852600580885297869020865160c0810188528154815292810154978301979097529386015494810194909452600385015490840181905260048501546001600160a01b03166080850152939094015460a0830152835190519192909161041091610df3565b1061044a5760405162461bcd60e51b815260206004820152600a6024820152692727aa2faba4a72722a960b11b604482015260640161035f565b60808101516001600160a01b0316156104975760405162461bcd60e51b815260206004820152600f60248201526e1053149150511657d0d31052535151608a1b604482015260640161035f565b336080820181905260408201516002546104bc926001600160a01b03909116916108fd565b505050565b600081815260066020908152604080832033845290915290206002015460ff161561051f5760405162461bcd60e51b815260206004820152600e60248201526d1053149150511657d1561255115160921b604482015260640161035f565b61052761095c565b600154811061056a5760405162461bcd60e51b815260206004820152600f60248201526e43555252454e545f4c4f545445525960881b604482015260640161035f565b6000818152600660209081526040808320338452825280832080546002909101805460ff1916600190811790915585855260059093529083209091018054919283926105b7908490610df3565b90915550506002546105d3906001600160a01b031633836108fd565b5050565b6106196040518060c001604052806000815260200160008152602001600081526020016000815260200160006001600160a01b03168152602001600081525090565b50600090815260056020818152604092839020835160c081018552815481526001820154928101929092526002810154938201939093526003830154606082015260048301546001600160a01b0316608082015291015460a082015290565b6001546000908152600660209081526040808320338452909152902054156106e25760405162461bcd60e51b815260206004820152601860248201527f555345525f414c52454144595f5041525449434950414e540000000000000000604482015260640161035f565b6106ea61095c565b6001805460009081526005602081815260408084208501546006808452828620338088529085528387208801929092558654865283528185209085528252808420869055845484529190528120909101805483929061074a908490610e06565b9091555050600254610767906001600160a01b0316333084610b34565b60048054604051630ed1279f60e11b815230928101929092526000916001600160a01b0390911690631da24f3e90602401602060405180830381865afa1580156107b5573d6000803e3d6000fd5b505050506040513d601f19601f820116820180604052508101906107d99190610e19565b60035460025460405163e8eda9df60e01b81526001600160a01b0391821660048201526024810186905230604482015260006064820152929350169063e8eda9df90608401600060405180830381600087803b15801561083857600080fd5b505af115801561084c573d6000803e3d6000fd5b505060048054604051630ed1279f60e11b81523092810192909252600093506001600160a01b03169150631da24f3e90602401602060405180830381865afa15801561089c573d6000803e3d6000fd5b505050506040513d601f19601f820116820180604052508101906108c09190610e19565b90506108cc8282610df3565b60056000600154815260200190815260200160002060050160008282546108f39190610e06565b9091555050505050565b6040516001600160a01b038381166024830152604482018390526104bc91859182169063a9059cbb906064015b604051602081830303815290604052915060e01b6020820180516001600160e01b038381831617835250505050610b73565b600154600090815260056020526040902054421115610b325760035460025460405163d15e005360e01b81526001600160a01b039182166004820152600092919091169063d15e005390602401602060405180830381865afa1580156109c6573d6000803e3d6000fd5b505050506040513d601f19601f820116820180604052508101906109ea9190610e19565b60015460009081526005602081905260408220015491925090610a0d9083610bd6565b600354600254604051631a4ca37b60e21b81526001600160a01b039182166004820152602481018490523060448201529293506000929116906369328dec906064016020604051808303816000875af1158015610a6e573d6000803e3d6000fd5b505050506040513d601f19601f82011682018060405250810190610a929190610e19565b6001805460009081526005602052604090200154909150610ab39082610df3565b600180546000908152600560205260408082206002019390935581548152919091200154610ae090610c1a565b60018054600090815260056020526040812060030192909255805490918291610b0a908390610e06565b9091555050600054610b1c9042610e06565b6001546000908152600560205260409020555050505b565b6040516001600160a01b038481166024830152838116604483015260648201839052610b6d9186918216906323b872dd9060840161092a565b50505050565b6000610b886001600160a01b03841683610c81565b90508051600014158015610bad575080806020019051810190610bab9190610e32565b155b156104bc57604051635274afe760e01b81526001600160a01b038416600482015260240161035f565b600081156b019d971e4fe8401e740000001983900484111517610bf857600080fd5b506b033b2e3c9fd0803ce800000091026b019d971e4fe8401e74000000010490565b60018054600081815260056020908152604080832090940154935191938493610c56934293019283526020830191909152604082015260600190565b60408051601f1981840301815291905280516020909101209050610c7a8382610e54565b9392505050565b6060610c7a8383600084600080856001600160a01b03168486604051610ca79190610e76565b60006040518083038185875af1925050503d8060008114610ce4576040519150601f19603f3d011682016040523d82523d6000602084013e610ce9565b606091505b5091509150610cf9868383610d03565b9695505050505050565b606082610d1857610d1382610d5f565b610c7a565b8151158015610d2f57506001600160a01b0384163b155b15610d5857604051639996b31560e01b81526001600160a01b038516600482015260240161035f565b5080610c7a565b805115610d6f5780518082602001fd5b604051630a12f52160e11b815260040160405180910390fd5b60008060408385031215610d9b57600080fd5b8235915060208301356001600160a01b0381168114610db957600080fd5b809150509250929050565b600060208284031215610dd657600080fd5b5035919050565b634e487b7160e01b600052601160045260246000fd5b8181038181111561031a5761031a610ddd565b8082018082111561031a5761031a610ddd565b600060208284031215610e2b57600080fd5b5051919050565b600060208284031215610e4457600080fd5b81518015158114610c7a57600080fd5b600082610e7157634e487b7160e01b600052601260045260246000fd5b500690565b6000825160005b81811015610e975760208186018101518583015201610e7d565b50600092019182525091905056fea26469706673582212206f53d33e8c8688639fcb7d58257dac35f8839e74f164fe0dcda54bf1fc5f36dd64736f6c634300081a0033","linkReferences":{}},"methodIdentifiers":{"claim(uint256)":"379607f5","currentId()":"e00dd161","enter(uint256)":"a59f3e0c","exit(uint256)":"7f8661a1","getRound(uint256)":"8f1327c0","getTicket(uint256,address)":"19a03cc2","roundDuration()":"f7cb789a","rounds(uint256)":"8c65c81f","tickets(uint256,address)":"b99d6e29","underlying()":"6f307dc3"},"id":13}